{
  "transactions": [
    {
      "hash": "0xd1b62cb0e69f71c192bc8903c95469b60e7e16298a17524a336a84cb2a1b44eb",
      "transactionType": "CREATE",
      "contractName": "MockRateSource",
      "contractAddress": "0x793f992d57f26637595b325adbe8139823955adc",
      "function": null,
      "arguments": null,
      "transaction": {
        "from": "0x56b73ff6872cff6a57c3e96a52edb49bd6c93791",
        "gas": "0x54dd3",
        "value": "0x0",
        "input": "0x6080806040523461008f57331561007a575f8054336001600160a01b03198216811783556040519290916001600160a01b0316907f8be0079c531659141344cd1fd0a4f28419497f9722a3daafe3b4186f6b6457e09080a366b1a2bc2ec5000060015567011c37937e08000060025561029b90816100948239f35b631e4fbdf760e01b81525f6004820152602490fd5b5f80fdfe60406080815260049081361015610014575f80fd5b5f3560e01c80633f95e2731461021a578063715018a6146101c357806384bdc9a81461015a5780638da5cb5b1461019c578063ac6af28014610178578063ad2961a31461015a578063ba1c5e801461013c578063c914b4371461013c578063dd3eaf041461011c5763f2fde38b1461008a575f80fd5b34610118576020366003190112610118576001600160a01b03823581811693919290849003610118576100bb61023a565b83156101025750505f54826bffffffffffffffffffffffff60a01b8216175f55167f8be0079c531659141344cd1fd0a4f28419497f9722a3daafe3b4186f6b6457e05f80a3005b905f6024925191631e4fbdf760e01b8352820152fd5b5f80fd5b82346101185760203660031901126101185761013661023a565b35600255005b5034610118575f366003190112610118576020906002549051908152f35b5034610118575f366003190112610118576020906001549051908152f35b5034610118573660031901126101185761019061023a565b35600155602435600255005b5034610118575f366003190112610118575f5490516001600160a01b039091168152602090f35b34610118575f366003190112610118576101db61023a565b5f80546001600160a01b0319811682556001600160a01b03167f8be0079c531659141344cd1fd0a4f28419497f9722a3daafe3b4186f6b6457e08280a3005b82346101185760203660031901126101185761023461023a565b35600155005b5f546001600160a01b0316330361024d57565b60405163118cdaa760e01b8152336004820152602490fdfea2646970667358221220e1684020137a33504a40cf4f7acea6712b13cabef462c28bdcaabc4bd0dd68b464736f6c63430008180033",
        "nonce": "0x4b",
        "chainId": "0x14a34"
      },
      "additionalContracts": [],
      "isFixedGasLimit": false
    },
    {
      "hash": "0x6b212e52d3cc10d6ff102adbc579ed46bbc161b37b6b52dcb9c97c4409bbf086",
      "transactionType": "CALL",
      "contractName": null,
      "contractAddress": "0x8d1d3d7c373e84509dc86d1000cbdde92123b23b",
      "function": "addSource(address)",
      "arguments": [
        "0x793f992D57f26637595B325ADBe8139823955adC"
      ],
      "transaction": {
        "from": "0x56b73ff6872cff6a57c3e96a52edb49bd6c93791",
        "to": "0x8d1d3d7c373e84509dc86d1000cbdde92123b23b",
        "gas": "0x1392b",
        "value": "0x0",
        "input": "0x2a142b0b000000000000000000000000793f992d57f26637595b325adbe8139823955adc",
        "nonce": "0x4c",
        "chainId": "0x14a34"
      },
      "additionalContracts": [],
      "isFixedGasLimit": false
    }
  ],
  "receipts": [
    {
      "status": "0x1",
      "cumulativeGasUsed": "0x42e6cf",
      "logs": [
        {
          "address": "0x793f992d57f26637595b325adbe8139823955adc",
          "topics": [
            "0x8be0079c531659141344cd1fd0a4f28419497f9722a3daafe3b4186f6b6457e0",
            "0x0000000000000000000000000000000000000000000000000000000000000000",
            "0x00000000000000000000000056b73ff6872cff6a57c3e96a52edb49bd6c93791"
          ],
          "data": "0x",
          "blockHash": "0xd58af217c93e57f8c1be86ea6be461280e7d90fb3b7ac439671d757520aa7e38",
          "blockNumber": "0x2277ba7",
          "blockTimestamp": "0x6962562e",
          "transactionHash": "0xd1b62cb0e69f71c192bc8903c95469b60e7e16298a17524a336a84cb2a1b44eb",
          "transactionIndex": "0xb",
          "logIndex": "0x8",
          "removed": false
        }
      ],
      "logsBloom": "0x00000000000000000000000000000000000000000000000000800000000000000000000000000000000000000000000000000000000000000000000000000000000000000000000000000000000080000001000000020000000400000000000000000000020000000000000000000800000000000000000000000000000000400000000000000000000000000000000000000000000000000000010000000000000000000000000020000000000000000000000000000000000000000000000000000000002000000000000000000000000000000000000000000000000020000000000000000000000000000000000000000000000000000000000000000000",
      "type": "0x2",
      "transactionHash": "0xd1b62cb0e69f71c192bc8903c95469b60e7e16298a17524a336a84cb2a1b44eb",
      "transactionIndex": "0xb",
      "blockHash": "0xd58af217c93e57f8c1be86ea6be461280e7d90fb3b7ac439671d757520aa7e38",
      "blockNumber": "0x2277ba7",
      "gasUsed": "0x4147b",
      "effectiveGasPrice": "0x124f80",
      "blobGasUsed": "0x27c30",
      "from": "0x56b73ff6872cff6a57c3e96a52edb49bd6c93791",
      "to": null,
      "contractAddress": "0x793f992d57f26637595b325adbe8139823955adc",
      "daFootprintGasScalar": "0x138",
      "l1BaseFeeScalar": "0x44d",
      "l1BlobBaseFee": "0x16c6",
      "l1BlobBaseFeeScalar": "0xa118b",
      "l1Fee": "0x15b6a57",
      "l1GasPrice": "0x19458",
      "l1GasUsed": "0x20ae"
    },
    {
      "status": "0x1",
      "cumulativeGasUsed": "0x43bcf1",
      "logs": [
        {
          "address": "0x8d1d3d7c373e84509dc86d1000cbdde92123b23b",
          "topics": [
            "0x532c7d8350b4fb5870dc8d9628eddd572fafea8aa4f1ccc3db47fefbf8758f7e",
            "0x000000000000000000000000793f992d57f26637595b325adbe8139823955adc"
          ],
          "data": "0x",
          "blockHash": "0xd58af217c93e57f8c1be86ea6be461280e7d90fb3b7ac439671d757520aa7e38",
          "blockNumber": "0x2277ba7",
          "blockTimestamp": "0x6962562e",
          "transactionHash": "0x6b212e52d3cc10d6ff102adbc579ed46bbc161b37b6b52dcb9c97c4409bbf086",
          "transactionIndex": "0xc",
          "logIndex": "0x9",
          "removed": false
        }
      ],
      "logsBloom": "0x00000000000000000000000000000000000000000000000000000000002000000000000000000000000000000000000000000000000000000000000800820000000000000000000000000000000000000002000000000000000000000000000000000000000000000000000000000000000000000800000000010000000000000000000000000000000000000000000000000000000000000000000000000000000000000000000000000000000000000100000000000800000000000000000000000000000000000000000000000000000000000000000000000000000000000000000000000000000000000000000000000000000000000000000000000000",
      "type": "0x2",
      "transactionHash": "0x6b212e52d3cc10d6ff102adbc579ed46bbc161b37b6b52dcb9c97c4409bbf086",
      "transactionIndex": "0xc",
      "blockHash": "0xd58af217c93e57f8c1be86ea6be461280e7d90fb3b7ac439671d757520aa7e38",
      "blockNumber": "0x2277ba7",
      "gasUsed": "0xd622",
      "effectiveGasPrice": "0x124f80",
      "blobGasUsed": "0x79e0",
      "from": "0x56b73ff6872cff6a57c3e96a52edb49bd6c93791",
      "to": "0x8d1d3d7c373e84509dc86d1000cbdde92123b23b",
      "contractAddress": null,
      "daFootprintGasScalar": "0x138",
      "l1BaseFeeScalar": "0x44d",
      "l1BlobBaseFee": "0x16c6",
      "l1BlobBaseFeeScalar": "0xa118b",
      "l1Fee": "0x15b6a57",
      "l1GasPrice": "0x19458",
      "l1GasUsed": "0x640"
    }
  ],
  "libraries": [],
  "pending": [],
  "returns": {},
  "timestamp": 1768052269301,
  "chain": 84532,
  "commit": null
}