{
  "transactions": [
    {
      "hash": "0x4802e235b4b20c76265f80accc2a583fdf606114b16e1097fb4cf4ecc601b53a",
      "transactionType": "CALL",
      "contractName": null,
      "contractAddress": "0xe7d8add69537883faccd068fc798794093b4a9b6",
      "function": "approve(address,uint256)",
      "arguments": [
        "0xA32bFE3Ea5282A8EecdcC2378569938E3b30C4A4",
        "100000000000"
      ],
      "transaction": {
        "from": "0x56b73ff6872cff6a57c3e96a52edb49bd6c93791",
        "to": "0xe7d8add69537883faccd068fc798794093b4a9b6",
        "gas": "0x1067d",
        "value": "0x0",
        "input": "0x095ea7b3000000000000000000000000a32bfe3ea5282a8eecdcc2378569938e3b30c4a4000000000000000000000000000000000000000000000000000000174876e800",
        "nonce": "0x43",
        "chainId": "0x14a34"
      },
      "additionalContracts": [],
      "isFixedGasLimit": false
    },
    {
      "hash": "0x0f2fd22a8deb4a4bd28ca6db213e1aa0c084ced1da6f09d85609d2f0c228828c",
      "transactionType": "CALL",
      "contractName": null,
      "contractAddress": "0x3058a6a96221bbebd030bb36a13f53000b45d0ad",
      "function": "approve(address,uint256)",
      "arguments": [
        "0xA32bFE3Ea5282A8EecdcC2378569938E3b30C4A4",
        "50000000000000000000"
      ],
      "transaction": {
        "from": "0x56b73ff6872cff6a57c3e96a52edb49bd6c93791",
        "to": "0x3058a6a96221bbebd030bb36a13f53000b45d0ad",
        "gas": "0xf818",
        "value": "0x0",
        "input": "0x095ea7b3000000000000000000000000a32bfe3ea5282a8eecdcc2378569938e3b30c4a4000000000000000000000000000000000000000000000002b5e3af16b1880000",
        "nonce": "0x44",
        "chainId": "0x14a34"
      },
      "additionalContracts": [],
      "isFixedGasLimit": false
    },
    {
      "hash": "0x804ae6fca15155440f896ce505449a759955464c78b9167df92e614870cc8f18",
      "transactionType": "CALL",
      "contractName": null,
      "contractAddress": "0xa32bfe3ea5282a8eecdcc2378569938e3b30c4a4",
      "function": "addLiquidity(address,address,uint256,uint256,uint256,uint256,address,uint256)",
      "arguments": [
        "0xE7D8ADd69537883fAccD068fC798794093B4a9b6",
        "0x3058A6a96221BbEBD030bB36a13f53000b45d0aD",
        "100000000000",
        "50000000000000000000",
        "95000000000",
        "47500000000000000000",
        "0x56b73fF6872Cff6a57c3E96a52EdB49BD6c93791",
        "1766541806"
      ],
      "transaction": {
        "from": "0x56b73ff6872cff6a57c3e96a52edb49bd6c93791",
        "to": "0xa32bfe3ea5282a8eecdcc2378569938e3b30c4a4",
        "gas": "0x506a3",
        "value": "0x0",
        "input": "0xe8e33700000000000000000000000000e7d8add69537883faccd068fc798794093b4a9b60000000000000000000000003058a6a96221bbebd030bb36a13f53000b45d0ad000000000000000000000000000000000000000000000000000000174876e800000000000000000000000000000000000000000000000002b5e3af16b1880000000000000000000000000000000000000000000000000000000000161e70f6000000000000000000000000000000000000000000000000029331e6558f0e000000000000000000000000000056b73ff6872cff6a57c3e96a52edb49bd6c9379100000000000000000000000000000000000000000000000000000000694b49ee",
        "nonce": "0x45",
        "chainId": "0x14a34"
      },
      "additionalContracts": [],
      "isFixedGasLimit": false
    }
  ],
  "receipts": [
    {
      "status": "0x1",
      "cumulativeGasUsed": "0x695ef8",
      "logs": [
        {
          "address": "0xe7d8add69537883faccd068fc798794093b4a9b6",
          "topics": [
            "0x8c5be1e5ebec7d5bd14f71427d1e84f3dd0314c0f7b2291e5b200ac8c7c3b925",
            "0x00000000000000000000000056b73ff6872cff6a57c3e96a52edb49bd6c93791",
            "0x000000000000000000000000a32bfe3ea5282a8eecdcc2378569938e3b30c4a4"
          ],
          "data": "0x000000000000000000000000000000000000000000000000000000174876e800",
          "blockHash": "0x7777e5b0840e3f86dd7f3a6c9931ce77693851e79df4af960f699cfeec01049b",
          "blockNumber": "0x21bee8a",
          "blockTimestamp": "0x694b3bf4",
          "transactionHash": "0x4802e235b4b20c76265f80accc2a583fdf606114b16e1097fb4cf4ecc601b53a",
          "transactionIndex": "0xb",
          "logIndex": "0x3a",
          "removed": false
        }
      ],
      "logsBloom": "0x04000000000000000000000000000000000000200000000000000000000000000000000000000000000000000000000000000000000000000000000000200000000000000000000000000000000080000000000000000000000000000000000000000000000000000000000000000000000000000000000000000000000000000000000000000000000000800000000000000000000000000000000000000000020000000000000020000000000020000000000000000000000000000004000000000000002000000000000000000000000000000000000000000000000000000010000000000000000200000000000000000000000000000000000000000000",
      "type": "0x2",
      "transactionHash": "0x4802e235b4b20c76265f80accc2a583fdf606114b16e1097fb4cf4ecc601b53a",
      "transactionIndex": "0xb",
      "blockHash": "0x7777e5b0840e3f86dd7f3a6c9931ce77693851e79df4af960f699cfeec01049b",
      "blockNumber": "0x21bee8a",
      "gasUsed": "0xb37b",
      "effectiveGasPrice": "0x124f80",
      "blobGasUsed": "0x79e0",
      "from": "0x56b73ff6872cff6a57c3e96a52edb49bd6c93791",
      "to": "0xe7d8add69537883faccd068fc798794093b4a9b6",
      "contractAddress": null,
      "daFootprintGasScalar": "0x138",
      "l1BaseFeeScalar": "0x44d",
      "l1BlobBaseFee": "0x703",
      "l1BlobBaseFeeScalar": "0xa118b",
      "l1Fee": "0x2c59c",
      "l1GasPrice": "0x8c2e",
      "l1GasUsed": "0x640"
    },
    {
      "status": "0x1",
      "cumulativeGasUsed": "0x6a1297",
      "logs": [
        {
          "address": "0x3058a6a96221bbebd030bb36a13f53000b45d0ad",
          "topics": [
            "0x8c5be1e5ebec7d5bd14f71427d1e84f3dd0314c0f7b2291e5b200ac8c7c3b925",
            "0x00000000000000000000000056b73ff6872cff6a57c3e96a52edb49bd6c93791",
            "0x000000000000000000000000a32bfe3ea5282a8eecdcc2378569938e3b30c4a4"
          ],
          "data": "0x000000000000000000000000000000000000000000000002b5e3af16b1880000",
          "blockHash": "0x7777e5b0840e3f86dd7f3a6c9931ce77693851e79df4af960f699cfeec01049b",
          "blockNumber": "0x21bee8a",
          "blockTimestamp": "0x694b3bf4",
          "transactionHash": "0x0f2fd22a8deb4a4bd28ca6db213e1aa0c084ced1da6f09d85609d2f0c228828c",
          "transactionIndex": "0xc",
          "logIndex": "0x3b",
          "removed": false
        }
      ],
      "logsBloom": "0x04000000000000000000000000000000000000200000000000000000000000000000000000000000000000000000020000000000000000000000000000200000000000000000000000000000000080000000000000000000000000000000000000000000000000004000000000000000000000000000000000000000000000000000000000000000000000000000000000000000000000000000000000000000020000000000000020000000000000000000000000000000000000000000000000000040002000000000000000000000000000000000000000000000000000000010000000000000000200000000000000000000000000000000000000000000",
      "type": "0x2",
      "transactionHash": "0x0f2fd22a8deb4a4bd28ca6db213e1aa0c084ced1da6f09d85609d2f0c228828c",
      "transactionIndex": "0xc",
      "blockHash": "0x7777e5b0840e3f86dd7f3a6c9931ce77693851e79df4af960f699cfeec01049b",
      "blockNumber": "0x21bee8a",
      "gasUsed": "0xb39f",
      "effectiveGasPrice": "0x124f80",
      "blobGasUsed": "0x79e0",
      "from": "0x56b73ff6872cff6a57c3e96a52edb49bd6c93791",
      "to": "0x3058a6a96221bbebd030bb36a13f53000b45d0ad",
      "contractAddress": null,
      "daFootprintGasScalar": "0x138",
      "l1BaseFeeScalar": "0x44d",
      "l1BlobBaseFee": "0x703",
      "l1BlobBaseFeeScalar": "0xa118b",
      "l1Fee": "0x2c59c",
      "l1GasPrice": "0x8c2e",
      "l1GasUsed": "0x640"
    },
    {
      "status": "0x1",
      "cumulativeGasUsed": "0x8329dd",
      "logs": [
        {
          "address": "0xe7d8add69537883faccd068fc798794093b4a9b6",
          "topics": [
            "0xddf252ad1be2c89b69c2b068fc378daa952ba7f163c4a11628f55a4df523b3ef",
            "0x00000000000000000000000056b73ff6872cff6a57c3e96a52edb49bd6c93791",
            "0x000000000000000000000000db06745f6bc836c1807719332ea5e7aef89d4eea"
          ],
          "data": "0x000000000000000000000000000000000000000000000000000000174876e800",
          "blockHash": "0x51f7b90dafa330e176cae8bc2d4cf1e1decb2a1afb550336cc8439602bd89a13",
          "blockNumber": "0x21bee8a",
          "blockTimestamp": "0x694b3bf4",
          "transactionHash": "0x804ae6fca15155440f896ce505449a759955464c78b9167df92e614870cc8f18",
          "transactionIndex": "0xe",
          "logIndex": "0x3c",
          "removed": false
        },
        {
          "address": "0x3058a6a96221bbebd030bb36a13f53000b45d0ad",
          "topics": [
            "0xddf252ad1be2c89b69c2b068fc378daa952ba7f163c4a11628f55a4df523b3ef",
            "0x00000000000000000000000056b73ff6872cff6a57c3e96a52edb49bd6c93791",
            "0x000000000000000000000000db06745f6bc836c1807719332ea5e7aef89d4eea"
          ],
          "data": "0x000000000000000000000000000000000000000000000002b5e3af16b1880000",
          "blockHash": "0x51f7b90dafa330e176cae8bc2d4cf1e1decb2a1afb550336cc8439602bd89a13",
          "blockNumber": "0x21bee8a",
          "blockTimestamp": "0x694b3bf4",
          "transactionHash": "0x804ae6fca15155440f896ce505449a759955464c78b9167df92e614870cc8f18",
          "transactionIndex": "0xe",
          "logIndex": "0x3d",
          "removed": false
        },
        {
          "address": "0xdb06745f6bc836c1807719332ea5e7aef89d4eea",
          "topics": [
            "0xddf252ad1be2c89b69c2b068fc378daa952ba7f163c4a11628f55a4df523b3ef",
            "0x0000000000000000000000000000000000000000000000000000000000000000",
            "0x0000000000000000000000000000000000000000000000000000000000000000"
          ],
          "data": "0x00000000000000000000000000000000000000000000000000000000000003e8",
          "blockHash": "0x51f7b90dafa330e176cae8bc2d4cf1e1decb2a1afb550336cc8439602bd89a13",
          "blockNumber": "0x21bee8a",
          "blockTimestamp": "0x694b3bf4",
          "transactionHash": "0x804ae6fca15155440f896ce505449a759955464c78b9167df92e614870cc8f18",
          "transactionIndex": "0xe",
          "logIndex": "0x3e",
          "removed": false
        },
        {
          "address": "0xdb06745f6bc836c1807719332ea5e7aef89d4eea",
          "topics": [
            "0xddf252ad1be2c89b69c2b068fc378daa952ba7f163c4a11628f55a4df523b3ef",
            "0x0000000000000000000000000000000000000000000000000000000000000000",
            "0x00000000000000000000000056b73ff6872cff6a57c3e96a52edb49bd6c93791"
          ],
          "data": "0x0000000000000000000000000000000000000000000000000007f1b1257e10a5",
          "blockHash": "0x51f7b90dafa330e176cae8bc2d4cf1e1decb2a1afb550336cc8439602bd89a13",
          "blockNumber": "0x21bee8a",
          "blockTimestamp": "0x694b3bf4",
          "transactionHash": "0x804ae6fca15155440f896ce505449a759955464c78b9167df92e614870cc8f18",
          "transactionIndex": "0xe",
          "logIndex": "0x3f",
          "removed": false
        },
        {
          "address": "0xdb06745f6bc836c1807719332ea5e7aef89d4eea",
          "topics": [
            "0x1c411e9a96e071241c2f21f7726b17ae89e3cab4c78be50e062b03a9fffbbad1"
          ],
          "data": "0x000000000000000000000000000000000000000000000002b5e3af16b1880000000000000000000000000000000000000000000000000000000000174876e800",
          "blockHash": "0x51f7b90dafa330e176cae8bc2d4cf1e1decb2a1afb550336cc8439602bd89a13",
          "blockNumber": "0x21bee8a",
          "blockTimestamp": "0x694b3bf4",
          "transactionHash": "0x804ae6fca15155440f896ce505449a759955464c78b9167df92e614870cc8f18",
          "transactionIndex": "0xe",
          "logIndex": "0x40",
          "removed": false
        },
        {
          "address": "0xdb06745f6bc836c1807719332ea5e7aef89d4eea",
          "topics": [
            "0x4c209b5fc8ad50758f13e2e1088ba56a560dff690a1c6fef26394f4c03821c4f",
            "0x000000000000000000000000a32bfe3ea5282a8eecdcc2378569938e3b30c4a4"
          ],
          "data": "0x000000000000000000000000000000000000000000000002b5e3af16b1880000000000000000000000000000000000000000000000000000000000174876e800",
          "blockHash": "0x51f7b90dafa330e176cae8bc2d4cf1e1decb2a1afb550336cc8439602bd89a13",
          "blockNumber": "0x21bee8a",
          "blockTimestamp": "0x694b3bf4",
          "transactionHash": "0x804ae6fca15155440f896ce505449a759955464c78b9167df92e614870cc8f18",
          "transactionIndex": "0xe",
          "logIndex": "0x41",
          "removed": false
        }
      ],
      "logsBloom": "0x04000000000008000000000080000000000008200000000000000020000001000000000000000000000000000000020000000004000000000000000000000000000000000000000000000008000080000000000000000000000000000000000000000000020000004000000000000800000000000008000000000010000000000000000000000000000000800000000000000000000000080000000000000000000000800000000020000000000020000000000000000000000000000004000000000042002000000000000000020000000000000000001000000000000020000000000000000000000200000000000000000000000000010000000000000000",
      "type": "0x2",
      "transactionHash": "0x804ae6fca15155440f896ce505449a759955464c78b9167df92e614870cc8f18",
      "transactionIndex": "0xe",
      "blockHash": "0x51f7b90dafa330e176cae8bc2d4cf1e1decb2a1afb550336cc8439602bd89a13",
      "blockNumber": "0x21bee8a",
      "gasUsed": "0x36fc1",
      "effectiveGasPrice": "0x124f80",
      "blobGasUsed": "0xd068",
      "from": "0x56b73ff6872cff6a57c3e96a52edb49bd6c93791",
      "to": "0xa32bfe3ea5282a8eecdcc2378569938e3b30c4a4",
      "contractAddress": null,
      "daFootprintGasScalar": "0x138",
      "l1BaseFeeScalar": "0x44d",
      "l1BlobBaseFee": "0x703",
      "l1BlobBaseFeeScalar": "0xa118b",
      "l1Fee": "0x56acde",
      "l1GasPrice": "0x8c2e",
      "l1GasUsed": "0xab8"
    }
  ],
  "libraries": [],
  "pending": [],
  "returns": {},
  "timestamp": 1766538227930,
  "chain": 84532,
  "commit": null
}